{
  "contractName": "Fundraiser",
  "abi": [
    {
      "inputs": [
        {
          "internalType": "string",
          "name": "_name",
          "type": "string"
        },
        {
          "internalType": "string",
          "name": "_url",
          "type": "string"
        },
        {
          "internalType": "string",
          "name": "_imageURL",
          "type": "string"
        },
        {
          "internalType": "string",
          "name": "_description",
          "type": "string"
        },
        {
          "internalType": "address payable",
          "name": "_beneficiary",
          "type": "address"
        },
        {
          "internalType": "address",
          "name": "_custodian",
          "type": "address"
        }
      ],
      "stateMutability": "nonpayable",
      "type": "constructor"
    },
    {
      "anonymous": false,
      "inputs": [
        {
          "indexed": true,
          "internalType": "address",
          "name": "donor",
          "type": "address"
        },
        {
          "indexed": false,
          "internalType": "uint256",
          "name": "value",
          "type": "uint256"
        }
      ],
      "name": "DonationReceived",
      "type": "event"
    },
    {
      "anonymous": false,
      "inputs": [
        {
          "indexed": true,
          "internalType": "address",
          "name": "previousOwner",
          "type": "address"
        },
        {
          "indexed": true,
          "internalType": "address",
          "name": "newOwner",
          "type": "address"
        }
      ],
      "name": "OwnershipTransferred",
      "type": "event"
    },
    {
      "anonymous": false,
      "inputs": [
        {
          "indexed": false,
          "internalType": "uint256",
          "name": "amount",
          "type": "uint256"
        }
      ],
      "name": "Withdraw",
      "type": "event"
    },
    {
      "stateMutability": "payable",
      "type": "fallback"
    },
    {
      "inputs": [],
      "name": "beneficiary",
      "outputs": [
        {
          "internalType": "address payable",
          "name": "",
          "type": "address"
        }
      ],
      "stateMutability": "view",
      "type": "function"
    },
    {
      "inputs": [],
      "name": "description",
      "outputs": [
        {
          "internalType": "string",
          "name": "",
          "type": "string"
        }
      ],
      "stateMutability": "view",
      "type": "function"
    },
    {
      "inputs": [],
      "name": "donationsCount",
      "outputs": [
        {
          "internalType": "uint256",
          "name": "",
          "type": "uint256"
        }
      ],
      "stateMutability": "view",
      "type": "function"
    },
    {
      "inputs": [],
      "name": "imageURL",
      "outputs": [
        {
          "internalType": "string",
          "name": "",
          "type": "string"
        }
      ],
      "stateMutability": "view",
      "type": "function"
    },
    {
      "inputs": [],
      "name": "name",
      "outputs": [
        {
          "internalType": "string",
          "name": "",
          "type": "string"
        }
      ],
      "stateMutability": "view",
      "type": "function"
    },
    {
      "inputs": [],
      "name": "owner",
      "outputs": [
        {
          "internalType": "address",
          "name": "",
          "type": "address"
        }
      ],
      "stateMutability": "view",
      "type": "function"
    },
    {
      "inputs": [],
      "name": "renounceOwnership",
      "outputs": [],
      "stateMutability": "nonpayable",
      "type": "function"
    },
    {
      "inputs": [],
      "name": "totalDonations",
      "outputs": [
        {
          "internalType": "uint256",
          "name": "",
          "type": "uint256"
        }
      ],
      "stateMutability": "view",
      "type": "function"
    },
    {
      "inputs": [
        {
          "internalType": "address",
          "name": "newOwner",
          "type": "address"
        }
      ],
      "name": "transferOwnership",
      "outputs": [],
      "stateMutability": "nonpayable",
      "type": "function"
    },
    {
      "inputs": [],
      "name": "url",
      "outputs": [
        {
          "internalType": "string",
          "name": "",
          "type": "string"
        }
      ],
      "stateMutability": "view",
      "type": "function"
    },
    {
      "stateMutability": "payable",
      "type": "receive"
    },
    {
      "inputs": [
        {
          "internalType": "address payable",
          "name": "_beneficiary",
          "type": "address"
        }
      ],
      "name": "setBeneficiary",
      "outputs": [],
      "stateMutability": "nonpayable",
      "type": "function"
    },
    {
      "inputs": [],
      "name": "myDonationsCount",
      "outputs": [
        {
          "internalType": "uint256",
          "name": "",
          "type": "uint256"
        }
      ],
      "stateMutability": "view",
      "type": "function"
    },
    {
      "inputs": [],
      "name": "donate",
      "outputs": [],
      "stateMutability": "payable",
      "type": "function"
    },
    {
      "inputs": [],
      "name": "myDonations",
      "outputs": [
        {
          "internalType": "uint256[]",
          "name": "values",
          "type": "uint256[]"
        },
        {
          "internalType": "uint256[]",
          "name": "dates",
          "type": "uint256[]"
        }
      ],
      "stateMutability": "view",
      "type": "function"
    },
    {
      "inputs": [],
      "name": "withdraw",
      "outputs": [],
      "stateMutability": "nonpayable",
      "type": "function"
    }
  ],
  "bytecode": "0x60806040523480156200001157600080fd5b506040516200184d3803806200184d8339818101604052810190620000379190620004dc565b620000576200004b6200011960201b60201c565b6200012160201b60201c565b85600290805190602001906200006f929190620001e5565b50846003908051906020019062000088929190620001e5565b508360049080519060200190620000a1929190620001e5565b508260059080519060200190620000ba929190620001e5565b5081600660006101000a81548173ffffffffffffffffffffffffffffffffffffffff021916908373ffffffffffffffffffffffffffffffffffffffff1602179055506200010d816200012160201b60201c565b50505050505062000658565b600033905090565b60008060009054906101000a900473ffffffffffffffffffffffffffffffffffffffff169050816000806101000a81548173ffffffffffffffffffffffffffffffffffffffff021916908373ffffffffffffffffffffffffffffffffffffffff1602179055508173ffffffffffffffffffffffffffffffffffffffff168173ffffffffffffffffffffffffffffffffffffffff167f8be0079c531659141344cd1fd0a4f28419497f9722a3daafe3b4186f6b6457e060405160405180910390a35050565b828054620001f39062000623565b90600052602060002090601f01602090048101928262000217576000855562000263565b82601f106200023257805160ff191683800117855562000263565b8280016001018555821562000263579182015b828111156200026257825182559160200191906001019062000245565b5b50905062000272919062000276565b5090565b5b808211156200029157600081600090555060010162000277565b5090565b6000604051905090565b600080fd5b600080fd5b600080fd5b600080fd5b6000601f19601f8301169050919050565b7f4e487b7100000000000000000000000000000000000000000000000000000000600052604160045260246000fd5b620002fe82620002b3565b810181811067ffffffffffffffff8211171562000320576200031f620002c4565b5b80604052505050565b60006200033562000295565b9050620003438282620002f3565b919050565b600067ffffffffffffffff821115620003665762000365620002c4565b5b6200037182620002b3565b9050602081019050919050565b60005b838110156200039e57808201518184015260208101905062000381565b83811115620003ae576000848401525b50505050565b6000620003cb620003c58462000348565b62000329565b905082815260208101848484011115620003ea57620003e9620002ae565b5b620003f78482856200037e565b509392505050565b600082601f830112620004175762000416620002a9565b5b815162000429848260208601620003b4565b91505092915050565b600073ffffffffffffffffffffffffffffffffffffffff82169050919050565b60006200045f8262000432565b9050919050565b620004718162000452565b81146200047d57600080fd5b50565b600081519050620004918162000466565b92915050565b6000620004a48262000432565b9050919050565b620004b68162000497565b8114620004c257600080fd5b50565b600081519050620004d681620004ab565b92915050565b60008060008060008060c08789031215620004fc57620004fb6200029f565b5b600087015167ffffffffffffffff8111156200051d576200051c620002a4565b5b6200052b89828a01620003ff565b965050602087015167ffffffffffffffff8111156200054f576200054e620002a4565b5b6200055d89828a01620003ff565b955050604087015167ffffffffffffffff811115620005815762000580620002a4565b5b6200058f89828a01620003ff565b945050606087015167ffffffffffffffff811115620005b357620005b2620002a4565b5b620005c189828a01620003ff565b9350506080620005d489828a0162000480565b92505060a0620005e789828a01620004c5565b9150509295509295509295565b7f4e487b7100000000000000000000000000000000000000000000000000000000600052602260045260246000fd5b600060028204905060018216806200063c57607f821691505b602082108103620006525762000651620005f4565b5b50919050565b6111e580620006686000396000f3fe6080604052600436106100ec5760003560e01c80635600f04f1161008a578063b90497e011610059578063b90497e014610309578063de2ed89314610334578063ed88c68e1461035f578063f2fde38b1461036957610125565b80635600f04f14610271578063715018a61461029c5780637284e416146102b35780638da5cb5b146102de57610125565b80631c31f710116100c65780631c31f710146101db5780631f5225951461020457806338af3eed1461022f5780633ccfd60b1461025a57610125565b80630180b97c1461015957806306fdde03146101845780631a57f7b4146101af57610125565b36610125576101063460075461039290919063ffffffff16565b6007819055506008600081548092919061011f90610c2c565b91905055005b61013a3460075461039290919063ffffffff16565b6007819055506008600081548092919061015390610c2c565b91905055005b34801561016557600080fd5b5061016e6103a8565b60405161017b9190610c83565b60405180910390f35b34801561019057600080fd5b506101996103f2565b6040516101a69190610d37565b60405180910390f35b3480156101bb57600080fd5b506101c4610480565b6040516101d2929190610e17565b60405180910390f35b3480156101e757600080fd5b5061020260048036038101906101fd9190610eb1565b6105f5565b005b34801561021057600080fd5b50610219610641565b6040516102269190610c83565b60405180910390f35b34801561023b57600080fd5b50610244610647565b6040516102519190610eed565b60405180910390f35b34801561026657600080fd5b5061026f61066d565b005b34801561027d57600080fd5b5061028661071d565b6040516102939190610d37565b60405180910390f35b3480156102a857600080fd5b506102b16107ab565b005b3480156102bf57600080fd5b506102c86107bf565b6040516102d59190610d37565b60405180910390f35b3480156102ea57600080fd5b506102f361084d565b6040516103009190610f29565b60405180910390f35b34801561031557600080fd5b5061031e610876565b60405161032b9190610d37565b60405180910390f35b34801561034057600080fd5b50610349610904565b6040516103569190610c83565b60405180910390f35b61036761090a565b005b34801561037557600080fd5b50610390600480360381019061038b9190610f70565b610a26565b005b600081836103a09190610f9d565b905092915050565b6000600160003373ffffffffffffffffffffffffffffffffffffffff1673ffffffffffffffffffffffffffffffffffffffff16815260200190815260200160002080549050905090565b600280546103ff90611022565b80601f016020809104026020016040519081016040528092919081815260200182805461042b90611022565b80156104785780601f1061044d57610100808354040283529160200191610478565b820191906000526020600020905b81548152906001019060200180831161045b57829003601f168201915b505050505081565b606080600061048d6103a8565b90508067ffffffffffffffff8111156104a9576104a8611053565b5b6040519080825280602002602001820160405280156104d75781602001602082028036833780820191505090505b5092508067ffffffffffffffff8111156104f4576104f3611053565b5b6040519080825280602002602001820160405280156105225781602001602082028036833780820191505090505b50915060005b818110156105ef576000600160003373ffffffffffffffffffffffffffffffffffffffff1673ffffffffffffffffffffffffffffffffffffffff168152602001908152602001600020828154811061058357610582611082565b5b9060005260206000209060020201905080600001548583815181106105ab576105aa611082565b5b60200260200101818152505080600101548483815181106105cf576105ce611082565b5b6020026020010181815250505080806105e790610c2c565b915050610528565b50509091565b6105fd610aa9565b80600660006101000a81548173ffffffffffffffffffffffffffffffffffffffff021916908373ffffffffffffffffffffffffffffffffffffffff16021790555050565b60085481565b600660009054906101000a900473ffffffffffffffffffffffffffffffffffffffff1681565b610675610aa9565b6000479050600660009054906101000a900473ffffffffffffffffffffffffffffffffffffffff1673ffffffffffffffffffffffffffffffffffffffff166108fc829081150290604051600060405180830381858888f193505050501580156106e2573d6000803e3d6000fd5b507f5b6b431d4476a211bb7d41c20d1aab9ae2321deee0d20be3d9fc9b1093fa6e3d816040516107129190610c83565b60405180910390a150565b6003805461072a90611022565b80601f016020809104026020016040519081016040528092919081815260200182805461075690611022565b80156107a35780601f10610778576101008083540402835291602001916107a3565b820191906000526020600020905b81548152906001019060200180831161078657829003601f168201915b505050505081565b6107b3610aa9565b6107bd6000610b27565b565b600580546107cc90611022565b80601f01602080910402602001604051908101604052809291908181526020018280546107f890611022565b80156108455780601f1061081a57610100808354040283529160200191610845565b820191906000526020600020905b81548152906001019060200180831161082857829003601f168201915b505050505081565b60008060009054906101000a900473ffffffffffffffffffffffffffffffffffffffff16905090565b6004805461088390611022565b80601f01602080910402602001604051908101604052809291908181526020018280546108af90611022565b80156108fc5780601f106108d1576101008083540402835291602001916108fc565b820191906000526020600020905b8154815290600101906020018083116108df57829003601f168201915b505050505081565b60075481565b60006040518060400160405280348152602001428152509050600160003373ffffffffffffffffffffffffffffffffffffffff1673ffffffffffffffffffffffffffffffffffffffff168152602001908152602001600020819080600181540180825580915050600190039060005260206000209060020201600090919091909150600082015181600001556020820151816001015550506109b73460075461039290919063ffffffff16565b600781905550600860008154809291906109d090610c2c565b91905055503373ffffffffffffffffffffffffffffffffffffffff167f264f630d9efa0d07053a31163641d9fcc0adafc9d9e76f1c37c2ce3a558d2c5234604051610a1b9190610c83565b60405180910390a250565b610a2e610aa9565b600073ffffffffffffffffffffffffffffffffffffffff168173ffffffffffffffffffffffffffffffffffffffff1603610a9d576040517f08c379a0000000000000000000000000000000000000000000000000000000008152600401610a9490611123565b60405180910390fd5b610aa681610b27565b50565b610ab1610beb565b73ffffffffffffffffffffffffffffffffffffffff16610acf61084d565b73ffffffffffffffffffffffffffffffffffffffff1614610b25576040517f08c379a0000000000000000000000000000000000000000000000000000000008152600401610b1c9061118f565b60405180910390fd5b565b60008060009054906101000a900473ffffffffffffffffffffffffffffffffffffffff169050816000806101000a81548173ffffffffffffffffffffffffffffffffffffffff021916908373ffffffffffffffffffffffffffffffffffffffff1602179055508173ffffffffffffffffffffffffffffffffffffffff168173ffffffffffffffffffffffffffffffffffffffff167f8be0079c531659141344cd1fd0a4f28419497f9722a3daafe3b4186f6b6457e060405160405180910390a35050565b600033905090565b7f4e487b7100000000000000000000000000000000000000000000000000000000600052601160045260246000fd5b6000819050919050565b6000610c3782610c22565b91507fffffffffffffffffffffffffffffffffffffffffffffffffffffffffffffffff8203610c6957610c68610bf3565b5b600182019050919050565b610c7d81610c22565b82525050565b6000602082019050610c986000830184610c74565b92915050565b600081519050919050565b600082825260208201905092915050565b60005b83811015610cd8578082015181840152602081019050610cbd565b83811115610ce7576000848401525b50505050565b6000601f19601f8301169050919050565b6000610d0982610c9e565b610d138185610ca9565b9350610d23818560208601610cba565b610d2c81610ced565b840191505092915050565b60006020820190508181036000830152610d518184610cfe565b905092915050565b600081519050919050565b600082825260208201905092915050565b6000819050602082019050919050565b610d8e81610c22565b82525050565b6000610da08383610d85565b60208301905092915050565b6000602082019050919050565b6000610dc482610d59565b610dce8185610d64565b9350610dd983610d75565b8060005b83811015610e0a578151610df18882610d94565b9750610dfc83610dac565b925050600181019050610ddd565b5085935050505092915050565b60006040820190508181036000830152610e318185610db9565b90508181036020830152610e458184610db9565b90509392505050565b600080fd5b600073ffffffffffffffffffffffffffffffffffffffff82169050919050565b6000610e7e82610e53565b9050919050565b610e8e81610e73565b8114610e9957600080fd5b50565b600081359050610eab81610e85565b92915050565b600060208284031215610ec757610ec6610e4e565b5b6000610ed584828501610e9c565b91505092915050565b610ee781610e73565b82525050565b6000602082019050610f026000830184610ede565b92915050565b6000610f1382610e53565b9050919050565b610f2381610f08565b82525050565b6000602082019050610f3e6000830184610f1a565b92915050565b610f4d81610f08565b8114610f5857600080fd5b50565b600081359050610f6a81610f44565b92915050565b600060208284031215610f8657610f85610e4e565b5b6000610f9484828501610f5b565b91505092915050565b6000610fa882610c22565b9150610fb383610c22565b9250827fffffffffffffffffffffffffffffffffffffffffffffffffffffffffffffffff03821115610fe857610fe7610bf3565b5b828201905092915050565b7f4e487b7100000000000000000000000000000000000000000000000000000000600052602260045260246000fd5b6000600282049050600182168061103a57607f821691505b60208210810361104d5761104c610ff3565b5b50919050565b7f4e487b7100000000000000000000000000000000000000000000000000000000600052604160045260246000fd5b7f4e487b7100000000000000000000000000000000000000000000000000000000600052603260045260246000fd5b7f4f776e61626c653a206e6577206f776e657220697320746865207a65726f206160008201527f6464726573730000000000000000000000000000000000000000000000000000602082015250565b600061110d602683610ca9565b9150611118826110b1565b604082019050919050565b6000602082019050818103600083015261113c81611100565b9050919050565b7f4f776e61626c653a2063616c6c6572206973206e6f7420746865206f776e6572600082015250565b6000611179602083610ca9565b915061118482611143565b602082019050919050565b600060208201905081810360008301526111a88161116c565b905091905056fea264697066735822122088b0fece3422f6aadd87b46ef8172cca7153018b1b4d33b993183bd9a7fd0ff664736f6c634300080e0033",
  "immutableReferences": {},
  "source": "//SPDX-License-Identifier: MIT\npragma solidity ^0.8.14;\n\nimport \"@openzeppelin/contracts/access/Ownable.sol\";\nimport \"@openzeppelin/contracts/utils/math/SafeMath.sol\";\n\ncontract Fundraiser is Ownable {\n\n    using SafeMath for uint256;\n\n    struct Donation {\n        uint256 value;\n        // uint256 conversionFactor;\n        uint256 date;\n    }\n    mapping (address => Donation[]) private _donations;\n\n    event DonationReceived(address indexed donor, uint256 value);\n    event Withdraw(uint256 amount);\n\n    string public name;\n    string public url;\n    string public imageURL;\n    string public description;\n\n    address payable public beneficiary;\n\n    uint256 public totalDonations;\n    uint256 public donationsCount;\n\n\n    /** memory is used when a data type such as arrays or string are pointing\n    directly to persisted data. While calldata is required when a function visibility is set to external **/\n\n    constructor(\n        string memory _name,\n        string memory _url,\n        string memory _imageURL,\n        string memory _description,\n        address payable _beneficiary,\n        address _custodian\n    ) public {\n        name = _name;\n        url = _url;\n        imageURL = _imageURL;\n        description = _description;\n        beneficiary = _beneficiary;\n        _transferOwnership(_custodian);\n    }\n\n    function setBeneficiary(address payable _beneficiary) public onlyOwner {\n        beneficiary = _beneficiary;\n    }\n\n    function myDonationsCount() public view returns(uint256) {\n        return _donations[msg.sender].length;\n    }\n    function donate() public payable {\n        Donation memory donation = Donation({\n            value: msg.value,\n            date: block.timestamp\n        });\n        _donations[msg.sender].push(donation);\n        totalDonations = totalDonations.add(msg.value);\n        donationsCount++;\n\n        emit DonationReceived(msg.sender, msg.value);\n    }\n\n    function myDonations() public view returns(uint256[] memory values, uint256[] memory dates) {\n        uint256 count = myDonationsCount();\n        values = new uint256[](count);\n        dates = new uint256[](count);\n\n        for (uint256 i = 0; i < count; i++) {\n            Donation storage donation = _donations[msg.sender][i];\n            values[i] = donation.value;\n            dates[i] = donation.date;\n        }\n        return (values, dates);\n    }\n\n    // withdraw function\n    function withdraw() public onlyOwner {\n        uint256 balance = address(this).balance;\n        beneficiary.transfer(balance);\n\n        emit Withdraw(balance);\n    }\n\n    // fallback functions -\n    /* Fallback functions are functions that are unnamed and will supply the default behav\n    ior in the event that the contract receives ether through a plain transaction or if the\n    contract is called with a method signature that does not match any of the defined\n    functions.\n    */\n\n    fallback() external payable {\n        totalDonations = totalDonations.add(msg.value);\n        donationsCount++;\n    }\n    receive() external payable {\n        totalDonations = totalDonations.add(msg.value);\n        donationsCount++;\n    }\n}",
  "sourcePath": "/home/andreas/ethereum-learn/fundraiser-dapp/truffle/contracts/Fundraiser.sol",
  "compiler": {
    "name": "solc",
    "version": "0.8.14+commit.80d49f37.Emscripten.clang"
  },
  "schemaVersion": "3.4.9",
  "updatedAt": "2022-09-01T14:48:48.421Z",
  "devdoc": {
    "kind": "dev",
    "methods": {
      "owner()": {
        "details": "Returns the address of the current owner."
      },
      "renounceOwnership()": {
        "details": "Leaves the contract without owner. It will not be possible to call `onlyOwner` functions anymore. Can only be called by the current owner. NOTE: Renouncing ownership will leave the contract without an owner, thereby removing any functionality that is only available to the owner."
      },
      "transferOwnership(address)": {
        "details": "Transfers ownership of the contract to a new account (`newOwner`). Can only be called by the current owner."
      }
    },
    "version": 1
  },
  "userdoc": {
    "kind": "user",
    "methods": {
      "constructor": {
        "notice": "memory is used when a data type such as arrays or string are pointing directly to persisted data. While calldata is required when a function visibility is set to external *"
      }
    },
    "version": 1
  }
}